{
  "contractName": "SurveyCoin",
  "abi": [
    {
      "inputs": [
        {
          "internalType": "string",
          "name": "_name",
          "type": "string"
        },
        {
          "internalType": "string",
          "name": "_symbol",
          "type": "string"
        }
      ],
      "stateMutability": "nonpayable",
      "type": "constructor"
    },
    {
      "anonymous": false,
      "inputs": [
        {
          "indexed": true,
          "internalType": "address",
          "name": "owner",
          "type": "address"
        },
        {
          "indexed": true,
          "internalType": "address",
          "name": "spender",
          "type": "address"
        },
        {
          "indexed": false,
          "internalType": "uint256",
          "name": "value",
          "type": "uint256"
        }
      ],
      "name": "Approval",
      "type": "event"
    },
    {
      "anonymous": false,
      "inputs": [
        {
          "indexed": false,
          "internalType": "uint256",
          "name": "numAnswers",
          "type": "uint256"
        }
      ],
      "name": "NewResponse",
      "type": "event"
    },
    {
      "anonymous": false,
      "inputs": [
        {
          "indexed": false,
          "internalType": "uint256",
          "name": "surveyid",
          "type": "uint256"
        },
        {
          "indexed": false,
          "internalType": "string",
          "name": "name",
          "type": "string"
        },
        {
          "indexed": false,
          "internalType": "address",
          "name": "creator",
          "type": "address"
        }
      ],
      "name": "NewSurvey",
      "type": "event"
    },
    {
      "anonymous": false,
      "inputs": [
        {
          "indexed": true,
          "internalType": "address",
          "name": "from",
          "type": "address"
        },
        {
          "indexed": true,
          "internalType": "address",
          "name": "to",
          "type": "address"
        },
        {
          "indexed": false,
          "internalType": "uint256",
          "name": "value",
          "type": "uint256"
        }
      ],
      "name": "Transfer",
      "type": "event"
    },
    {
      "inputs": [
        {
          "internalType": "address",
          "name": "owner",
          "type": "address"
        },
        {
          "internalType": "address",
          "name": "spender",
          "type": "address"
        }
      ],
      "name": "allowance",
      "outputs": [
        {
          "internalType": "uint256",
          "name": "",
          "type": "uint256"
        }
      ],
      "stateMutability": "view",
      "type": "function",
      "constant": true
    },
    {
      "inputs": [
        {
          "internalType": "address",
          "name": "spender",
          "type": "address"
        },
        {
          "internalType": "uint256",
          "name": "amount",
          "type": "uint256"
        }
      ],
      "name": "approve",
      "outputs": [
        {
          "internalType": "bool",
          "name": "",
          "type": "bool"
        }
      ],
      "stateMutability": "nonpayable",
      "type": "function"
    },
    {
      "inputs": [
        {
          "internalType": "address",
          "name": "account",
          "type": "address"
        }
      ],
      "name": "balanceOf",
      "outputs": [
        {
          "internalType": "uint256",
          "name": "",
          "type": "uint256"
        }
      ],
      "stateMutability": "view",
      "type": "function",
      "constant": true
    },
    {
      "inputs": [],
      "name": "decimals",
      "outputs": [
        {
          "internalType": "uint8",
          "name": "",
          "type": "uint8"
        }
      ],
      "stateMutability": "view",
      "type": "function",
      "constant": true
    },
    {
      "inputs": [
        {
          "internalType": "address",
          "name": "spender",
          "type": "address"
        },
        {
          "internalType": "uint256",
          "name": "subtractedValue",
          "type": "uint256"
        }
      ],
      "name": "decreaseAllowance",
      "outputs": [
        {
          "internalType": "bool",
          "name": "",
          "type": "bool"
        }
      ],
      "stateMutability": "nonpayable",
      "type": "function"
    },
    {
      "inputs": [
        {
          "internalType": "address",
          "name": "spender",
          "type": "address"
        },
        {
          "internalType": "uint256",
          "name": "addedValue",
          "type": "uint256"
        }
      ],
      "name": "increaseAllowance",
      "outputs": [
        {
          "internalType": "bool",
          "name": "",
          "type": "bool"
        }
      ],
      "stateMutability": "nonpayable",
      "type": "function"
    },
    {
      "inputs": [],
      "name": "name",
      "outputs": [
        {
          "internalType": "string",
          "name": "",
          "type": "string"
        }
      ],
      "stateMutability": "view",
      "type": "function",
      "constant": true
    },
    {
      "inputs": [],
      "name": "symbol",
      "outputs": [
        {
          "internalType": "string",
          "name": "",
          "type": "string"
        }
      ],
      "stateMutability": "view",
      "type": "function",
      "constant": true
    },
    {
      "inputs": [],
      "name": "totalSupply",
      "outputs": [
        {
          "internalType": "uint256",
          "name": "",
          "type": "uint256"
        }
      ],
      "stateMutability": "view",
      "type": "function",
      "constant": true
    },
    {
      "inputs": [
        {
          "internalType": "address",
          "name": "recipient",
          "type": "address"
        },
        {
          "internalType": "uint256",
          "name": "amount",
          "type": "uint256"
        }
      ],
      "name": "transfer",
      "outputs": [
        {
          "internalType": "bool",
          "name": "",
          "type": "bool"
        }
      ],
      "stateMutability": "nonpayable",
      "type": "function"
    },
    {
      "inputs": [
        {
          "internalType": "address",
          "name": "sender",
          "type": "address"
        },
        {
          "internalType": "address",
          "name": "recipient",
          "type": "address"
        },
        {
          "internalType": "uint256",
          "name": "amount",
          "type": "uint256"
        }
      ],
      "name": "transferFrom",
      "outputs": [
        {
          "internalType": "bool",
          "name": "",
          "type": "bool"
        }
      ],
      "stateMutability": "nonpayable",
      "type": "function"
    },
    {
      "inputs": [
        {
          "internalType": "string",
          "name": "_name",
          "type": "string"
        }
      ],
      "name": "createSurvey",
      "outputs": [],
      "stateMutability": "nonpayable",
      "type": "function"
    },
    {
      "inputs": [
        {
          "internalType": "uint256",
          "name": "surveyID",
          "type": "uint256"
        }
      ],
      "name": "answerSurvey",
      "outputs": [],
      "stateMutability": "nonpayable",
      "type": "function"
    },
    {
      "inputs": [
        {
          "internalType": "address",
          "name": "owner",
          "type": "address"
        }
      ],
      "name": "getOwnerSurveyCount",
      "outputs": [
        {
          "internalType": "uint256",
          "name": "",
          "type": "uint256"
        }
      ],
      "stateMutability": "view",
      "type": "function",
      "constant": true
    },
    {
      "inputs": [
        {
          "internalType": "uint256",
          "name": "surveyID",
          "type": "uint256"
        }
      ],
      "name": "getResponseCount",
      "outputs": [
        {
          "internalType": "uint256",
          "name": "",
          "type": "uint256"
        }
      ],
      "stateMutability": "view",
      "type": "function",
      "constant": true
    },
    {
      "inputs": [
        {
          "internalType": "address",
          "name": "owner",
          "type": "address"
        }
      ],
      "name": "getAllSurveyTitlesByOwner",
      "outputs": [
        {
          "internalType": "string[]",
          "name": "",
          "type": "string[]"
        }
      ],
      "stateMutability": "view",
      "type": "function",
      "constant": true
    }
  ],
  "bytecode": "0x60806040523480156200001157600080fd5b506040516200277d3803806200277d8339818101604052810190620000379190620003b4565b8181816003908051906020019062000051929190620002b2565b5080600490805190602001906200006a929190620002b2565b506012600560006101000a81548160ff021916908360ff16021790555050506200009e33620f4240620000a660201b60201c565b5050620005c9565b600073ffffffffffffffffffffffffffffffffffffffff168273ffffffffffffffffffffffffffffffffffffffff16141562000119576040517f08c379a00000000000000000000000000000000000000000000000000000000081526004016200011090620004de565b60405180910390fd5b6200012d600083836200025560201b60201c565b62000149816002546200025a60201b62000e881790919060201c565b600281905550620001a7816000808573ffffffffffffffffffffffffffffffffffffffff1673ffffffffffffffffffffffffffffffffffffffff168152602001908152602001600020546200025a60201b62000e881790919060201c565b6000808473ffffffffffffffffffffffffffffffffffffffff1673ffffffffffffffffffffffffffffffffffffffff168152602001908152602001600020819055508173ffffffffffffffffffffffffffffffffffffffff16600073ffffffffffffffffffffffffffffffffffffffff167fddf252ad1be2c89b69c2b068fc378daa952ba7f163c4a11628f55a4df523b3ef8360405162000249919062000500565b60405180910390a35050565b505050565b600080828401905083811015620002a8576040517f08c379a00000000000000000000000000000000000000000000000000000000081526004016200029f90620004bc565b60405180910390fd5b8091505092915050565b828054600181600116156101000203166002900490600052602060002090601f016020900481019282601f10620002f557805160ff191683800117855562000326565b8280016001018555821562000326579182015b828111156200032557825182559160200191906001019062000308565b5b50905062000335919062000339565b5090565b5b80821115620003545760008160009055506001016200033a565b5090565b600082601f8301126200036a57600080fd5b8151620003816200037b826200054b565b6200051d565b915080825260208301602083018583830111156200039e57600080fd5b620003ab83828462000593565b50505092915050565b60008060408385031215620003c857600080fd5b600083015167ffffffffffffffff811115620003e357600080fd5b620003f18582860162000358565b925050602083015167ffffffffffffffff8111156200040f57600080fd5b6200041d8582860162000358565b9150509250929050565b600062000436601b8362000578565b91507f536166654d6174683a206164646974696f6e206f766572666c6f7700000000006000830152602082019050919050565b600062000478601f8362000578565b91507f45524332303a206d696e7420746f20746865207a65726f2061646472657373006000830152602082019050919050565b620004b68162000589565b82525050565b60006020820190508181036000830152620004d78162000427565b9050919050565b60006020820190508181036000830152620004f98162000469565b9050919050565b6000602082019050620005176000830184620004ab565b92915050565b6000604051905081810181811067ffffffffffffffff821117156200054157600080fd5b8060405250919050565b600067ffffffffffffffff8211156200056357600080fd5b601f19601f8301169050602081019050919050565b600082825260208201905092915050565b6000819050919050565b60005b83811015620005b357808201518184015260208101905062000596565b83811115620005c3576000848401525b50505050565b6121a480620005d96000396000f3fe608060405234801561001057600080fd5b50600436106101005760003560e01c806370a0823111610097578063c5b8806611610066578063c5b88066146102d5578063d5db64b614610305578063dd62ed3e14610335578063dee4571b1461036557610100565b806370a082311461022757806395d89b4114610257578063a457c2d714610275578063a9059cbb146102a557610100565b8063313ce567116100d3578063313ce567146101a157806339509351146101bf578063396ab591146101ef5780634ccc03321461020b57610100565b806306fdde0314610105578063095ea7b31461012357806318160ddd1461015357806323b872dd14610171575b600080fd5b61010d610395565b60405161011a9190611d98565b60405180910390f35b61013d60048036038101906101389190611900565b610437565b60405161014a9190611d7d565b60405180910390f35b61015b610455565b6040516101689190611e9a565b60405180910390f35b61018b600480360381019061018691906118b1565b61045f565b6040516101989190611d7d565b60405180910390f35b6101a9610538565b6040516101b69190611ef3565b60405180910390f35b6101d960048036038101906101d49190611900565b61054f565b6040516101e69190611d7d565b60405180910390f35b6102096004803603810190610204919061193c565b610602565b005b6102256004803603810190610220919061197d565b6107f8565b005b610241600480360381019061023c919061184c565b610999565b60405161024e9190611e9a565b60405180910390f35b61025f6109e1565b60405161026c9190611d98565b60405180910390f35b61028f600480360381019061028a9190611900565b610a83565b60405161029c9190611d7d565b60405180910390f35b6102bf60048036038101906102ba9190611900565b610b50565b6040516102cc9190611d7d565b60405180910390f35b6102ef60048036038101906102ea919061184c565b610b6e565b6040516102fc9190611e9a565b60405180910390f35b61031f600480360381019061031a919061184c565b610bb7565b60405161032c9190611d5b565b60405180910390f35b61034f600480360381019061034a9190611875565b610dce565b60405161035c9190611e9a565b60405180910390f35b61037f600480360381019061037a919061197d565b610e55565b60405161038c9190611e9a565b60405180910390f35b606060038054600181600116156101000203166002900480601f01602080910402602001604051908101604052809291908181526020018280546001816001161561010002031660029004801561042d5780601f106104025761010080835404028352916020019161042d565b820191906000526020600020905b81548152906001019060200180831161041057829003601f168201915b5050505050905090565b600061044b610444610edd565b8484610ee5565b6001905092915050565b6000600254905090565b600061046c8484846110b0565b61052d84610478610edd565b6105288560405180606001604052806028815260200161212260289139600160008b73ffffffffffffffffffffffffffffffffffffffff1673ffffffffffffffffffffffffffffffffffffffff16815260200190815260200160002060006104de610edd565b73ffffffffffffffffffffffffffffffffffffffff1673ffffffffffffffffffffffffffffffffffffffff168152602001908152602001600020546113459092919063ffffffff16565b610ee5565b600190509392505050565b6000600560009054906101000a900460ff16905090565b60006105f861055c610edd565b846105f3856001600061056d610edd565b73ffffffffffffffffffffffffffffffffffffffff1673ffffffffffffffffffffffffffffffffffffffff16815260200190815260200160002060008973ffffffffffffffffffffffffffffffffffffffff1673ffffffffffffffffffffffffffffffffffffffff16815260200190815260200160002054610e8890919063ffffffff16565b610ee5565b6001905092915050565b6005600a60003373ffffffffffffffffffffffffffffffffffffffff1673ffffffffffffffffffffffffffffffffffffffff168152602001908152602001600020541061066057600161065433610999565b101561065f57600080fd5b5b6000600660008154809291906001019190505590506000600760008381526020019081526020016000209050828160000190805190602001906106a4929190611731565b5060008160010181905550600960003373ffffffffffffffffffffffffffffffffffffffff1673ffffffffffffffffffffffffffffffffffffffff168152602001908152602001600020829080600181540180825580915050600190039060005260206000200160009091909190915055600a60003373ffffffffffffffffffffffffffffffffffffffff1673ffffffffffffffffffffffffffffffffffffffff168152602001908152602001600020600081548092919060010191905055506005600a60003373ffffffffffffffffffffffffffffffffffffffff1673ffffffffffffffffffffffffffffffffffffffff1681526020019081526020016000205411156107b8576107b73360016113a0565b5b7f56d586715d8aa5f1227ca6509213ef1920741124c11f791be890af354c9bed8f8284336040516107eb93929190611eb5565b60405180910390a1505050565b6008600082815260200190815260200160002060009054906101000a900473ffffffffffffffffffffffffffffffffffffffff1673ffffffffffffffffffffffffffffffffffffffff163373ffffffffffffffffffffffffffffffffffffffff1614158015610868575060008110155b61087157600080fd5b60006007600083815260200190815260200160002090508060020160003373ffffffffffffffffffffffffffffffffffffffff1673ffffffffffffffffffffffffffffffffffffffff16815260200190815260200160002060009054906101000a900460ff16156108e157600080fd5b60018160020160003373ffffffffffffffffffffffffffffffffffffffff1673ffffffffffffffffffffffffffffffffffffffff16815260200190815260200160002060006101000a81548160ff021916908315150217905550806001016000815480929190600101919050555061095a33600161154e565b7f53b55b3d6349be0707243ec0a2bc86efff3ab477b9aabf8a02d4e3dfdc450b7c816001015460405161098d9190611e9a565b60405180910390a15050565b60008060008373ffffffffffffffffffffffffffffffffffffffff1673ffffffffffffffffffffffffffffffffffffffff168152602001908152602001600020549050919050565b606060048054600181600116156101000203166002900480601f016020809104026020016040519081016040528092919081815260200182805460018160011615610100020316600290048015610a795780601f10610a4e57610100808354040283529160200191610a79565b820191906000526020600020905b815481529060010190602001808311610a5c57829003601f168201915b5050505050905090565b6000610b46610a90610edd565b84610b418560405180606001604052806025815260200161214a6025913960016000610aba610edd565b73ffffffffffffffffffffffffffffffffffffffff1673ffffffffffffffffffffffffffffffffffffffff16815260200190815260200160002060008a73ffffffffffffffffffffffffffffffffffffffff1673ffffffffffffffffffffffffffffffffffffffff168152602001908152602001600020546113459092919063ffffffff16565b610ee5565b6001905092915050565b6000610b64610b5d610edd565b84846110b0565b6001905092915050565b6000600a60008373ffffffffffffffffffffffffffffffffffffffff1673ffffffffffffffffffffffffffffffffffffffff168152602001908152602001600020549050919050565b606080600960008473ffffffffffffffffffffffffffffffffffffffff1673ffffffffffffffffffffffffffffffffffffffff1681526020019081526020016000208054905067ffffffffffffffff81118015610c1357600080fd5b50604051908082528060200260200182016040528015610c4757816020015b6060815260200190600190039081610c325790505b50905060005b600960008573ffffffffffffffffffffffffffffffffffffffff1673ffffffffffffffffffffffffffffffffffffffff16815260200190815260200160002080549050811015610dc4576000600960008673ffffffffffffffffffffffffffffffffffffffff1673ffffffffffffffffffffffffffffffffffffffff1681526020019081526020016000208281548110610ce357fe5b90600052602060002001549050600760008281526020019081526020016000206000018054600181600116156101000203166002900480601f016020809104026020016040519081016040528092919081815260200182805460018160011615610100020316600290048015610d9a5780601f10610d6f57610100808354040283529160200191610d9a565b820191906000526020600020905b815481529060010190602001808311610d7d57829003601f168201915b5050505050838381518110610dab57fe5b6020026020010181905250508080600101915050610c4d565b5080915050919050565b6000600160008473ffffffffffffffffffffffffffffffffffffffff1673ffffffffffffffffffffffffffffffffffffffff16815260200190815260200160002060008373ffffffffffffffffffffffffffffffffffffffff1673ffffffffffffffffffffffffffffffffffffffff16815260200190815260200160002054905092915050565b600080821015610e6457600080fd5b60006007600084815260200190815260200160002090508060010154915050919050565b600080828401905083811015610ed3576040517f08c379a0000000000000000000000000000000000000000000000000000000008152600401610eca90611dfa565b60405180910390fd5b8091505092915050565b600033905090565b600073ffffffffffffffffffffffffffffffffffffffff168373ffffffffffffffffffffffffffffffffffffffff161415610f55576040517f08c379a0000000000000000000000000000000000000000000000000000000008152600401610f4c90611e5a565b60405180910390fd5b600073ffffffffffffffffffffffffffffffffffffffff168273ffffffffffffffffffffffffffffffffffffffff161415610fc5576040517f08c379a0000000000000000000000000000000000000000000000000000000008152600401610fbc90611dda565b60405180910390fd5b80600160008573ffffffffffffffffffffffffffffffffffffffff1673ffffffffffffffffffffffffffffffffffffffff16815260200190815260200160002060008473ffffffffffffffffffffffffffffffffffffffff1673ffffffffffffffffffffffffffffffffffffffff168152602001908152602001600020819055508173ffffffffffffffffffffffffffffffffffffffff168373ffffffffffffffffffffffffffffffffffffffff167f8c5be1e5ebec7d5bd14f71427d1e84f3dd0314c0f7b2291e5b200ac8c7c3b925836040516110a39190611e9a565b60405180910390a3505050565b600073ffffffffffffffffffffffffffffffffffffffff168373ffffffffffffffffffffffffffffffffffffffff161415611120576040517f08c379a000000000000000000000000000000000000000000000000000000000815260040161111790611e3a565b60405180910390fd5b600073ffffffffffffffffffffffffffffffffffffffff168273ffffffffffffffffffffffffffffffffffffffff161415611190576040517f08c379a000000000000000000000000000000000000000000000000000000000815260040161118790611dba565b60405180910390fd5b61119b8383836116e2565b611206816040518060600160405280602681526020016120fc602691396000808773ffffffffffffffffffffffffffffffffffffffff1673ffffffffffffffffffffffffffffffffffffffff168152602001908152602001600020546113459092919063ffffffff16565b6000808573ffffffffffffffffffffffffffffffffffffffff1673ffffffffffffffffffffffffffffffffffffffff16815260200190815260200160002081905550611299816000808573ffffffffffffffffffffffffffffffffffffffff1673ffffffffffffffffffffffffffffffffffffffff16815260200190815260200160002054610e8890919063ffffffff16565b6000808473ffffffffffffffffffffffffffffffffffffffff1673ffffffffffffffffffffffffffffffffffffffff168152602001908152602001600020819055508173ffffffffffffffffffffffffffffffffffffffff168373ffffffffffffffffffffffffffffffffffffffff167fddf252ad1be2c89b69c2b068fc378daa952ba7f163c4a11628f55a4df523b3ef836040516113389190611e9a565b60405180910390a3505050565b600083831115829061138d576040517f08c379a00000000000000000000000000000000000000000000000000000000081526004016113849190611d98565b60405180910390fd5b5060008385039050809150509392505050565b600073ffffffffffffffffffffffffffffffffffffffff168273ffffffffffffffffffffffffffffffffffffffff161415611410576040517f08c379a000000000000000000000000000000000000000000000000000000000815260040161140790611e1a565b60405180910390fd5b61141c826000836116e2565b611487816040518060600160405280602281526020016120da602291396000808673ffffffffffffffffffffffffffffffffffffffff1673ffffffffffffffffffffffffffffffffffffffff168152602001908152602001600020546113459092919063ffffffff16565b6000808473ffffffffffffffffffffffffffffffffffffffff1673ffffffffffffffffffffffffffffffffffffffff168152602001908152602001600020819055506114de816002546116e790919063ffffffff16565b600281905550600073ffffffffffffffffffffffffffffffffffffffff168273ffffffffffffffffffffffffffffffffffffffff167fddf252ad1be2c89b69c2b068fc378daa952ba7f163c4a11628f55a4df523b3ef836040516115429190611e9a565b60405180910390a35050565b600073ffffffffffffffffffffffffffffffffffffffff168273ffffffffffffffffffffffffffffffffffffffff1614156115be576040517f08c379a00000000000000000000000000000000000000000000000000000000081526004016115b590611e7a565b60405180910390fd5b6115ca600083836116e2565b6115df81600254610e8890919063ffffffff16565b600281905550611636816000808573ffffffffffffffffffffffffffffffffffffffff1673ffffffffffffffffffffffffffffffffffffffff16815260200190815260200160002054610e8890919063ffffffff16565b6000808473ffffffffffffffffffffffffffffffffffffffff1673ffffffffffffffffffffffffffffffffffffffff168152602001908152602001600020819055508173ffffffffffffffffffffffffffffffffffffffff16600073ffffffffffffffffffffffffffffffffffffffff167fddf252ad1be2c89b69c2b068fc378daa952ba7f163c4a11628f55a4df523b3ef836040516116d69190611e9a565b60405180910390a35050565b505050565b600061172983836040518060400160405280601e81526020017f536166654d6174683a207375627472616374696f6e206f766572666c6f770000815250611345565b905092915050565b828054600181600116156101000203166002900490600052602060002090601f016020900481019282601f1061177257805160ff19168380011785556117a0565b828001600101855582156117a0579182015b8281111561179f578251825591602001919060010190611784565b5b5090506117ad91906117b1565b5090565b5b808211156117ca5760008160009055506001016117b2565b5090565b6000813590506117dd816120ab565b92915050565b600082601f8301126117f457600080fd5b813561180761180282611f3b565b611f0e565b9150808252602083016020830185838301111561182357600080fd5b61182e838284612058565b50505092915050565b600081359050611846816120c2565b92915050565b60006020828403121561185e57600080fd5b600061186c848285016117ce565b91505092915050565b6000806040838503121561188857600080fd5b6000611896858286016117ce565b92505060206118a7858286016117ce565b9150509250929050565b6000806000606084860312156118c657600080fd5b60006118d4868287016117ce565b93505060206118e5868287016117ce565b92505060406118f686828701611837565b9150509250925092565b6000806040838503121561191357600080fd5b6000611921858286016117ce565b925050602061193285828601611837565b9150509250929050565b60006020828403121561194e57600080fd5b600082013567ffffffffffffffff81111561196857600080fd5b611974848285016117e3565b91505092915050565b60006020828403121561198f57600080fd5b600061199d84828501611837565b91505092915050565b60006119b28383611a4d565b905092915050565b6119c381612022565b82525050565b60006119d482611f77565b6119de8185611f9a565b9350836020820285016119f085611f67565b8060005b85811015611a2c5784840389528151611a0d85826119a6565b9450611a1883611f8d565b925060208a019950506001810190506119f4565b50829750879550505050505092915050565b611a4781611fdf565b82525050565b6000611a5882611f82565b611a628185611fab565b9350611a72818560208601612067565b611a7b8161209a565b840191505092915050565b6000611a9182611f82565b611a9b8185611fbc565b9350611aab818560208601612067565b611ab48161209a565b840191505092915050565b6000611acc602383611fbc565b91507f45524332303a207472616e7366657220746f20746865207a65726f206164647260008301527f65737300000000000000000000000000000000000000000000000000000000006020830152604082019050919050565b6000611b32602283611fbc565b91507f45524332303a20617070726f766520746f20746865207a65726f20616464726560008301527f73730000000000000000000000000000000000000000000000000000000000006020830152604082019050919050565b6000611b98601b83611fbc565b91507f536166654d6174683a206164646974696f6e206f766572666c6f7700000000006000830152602082019050919050565b6000611bd8602183611fbc565b91507f45524332303a206275726e2066726f6d20746865207a65726f2061646472657360008301527f73000000000000000000000000000000000000000000000000000000000000006020830152604082019050919050565b6000611c3e602583611fbc565b91507f45524332303a207472616e736665722066726f6d20746865207a65726f20616460008301527f64726573730000000000000000000000000000000000000000000000000000006020830152604082019050919050565b6000611ca4602483611fbc565b91507f45524332303a20617070726f76652066726f6d20746865207a65726f2061646460008301527f72657373000000000000000000000000000000000000000000000000000000006020830152604082019050919050565b6000611d0a601f83611fbc565b91507f45524332303a206d696e7420746f20746865207a65726f2061646472657373006000830152602082019050919050565b611d468161200b565b82525050565b611d5581612015565b82525050565b60006020820190508181036000830152611d7581846119c9565b905092915050565b6000602082019050611d926000830184611a3e565b92915050565b60006020820190508181036000830152611db28184611a86565b905092915050565b60006020820190508181036000830152611dd381611abf565b9050919050565b60006020820190508181036000830152611df381611b25565b9050919050565b60006020820190508181036000830152611e1381611b8b565b9050919050565b60006020820190508181036000830152611e3381611bcb565b9050919050565b60006020820190508181036000830152611e5381611c31565b9050919050565b60006020820190508181036000830152611e7381611c97565b9050919050565b60006020820190508181036000830152611e9381611cfd565b9050919050565b6000602082019050611eaf6000830184611d3d565b92915050565b6000606082019050611eca6000830186611d3d565b8181036020830152611edc8185611a86565b9050611eeb60408301846119ba565b949350505050565b6000602082019050611f086000830184611d4c565b92915050565b6000604051905081810181811067ffffffffffffffff82111715611f3157600080fd5b8060405250919050565b600067ffffffffffffffff821115611f5257600080fd5b601f19601f8301169050602081019050919050565b6000819050602082019050919050565b600081519050919050565b600081519050919050565b6000602082019050919050565b600082825260208201905092915050565b600082825260208201905092915050565b600082825260208201905092915050565b6000611fd882611feb565b9050919050565b60008115159050919050565b600073ffffffffffffffffffffffffffffffffffffffff82169050919050565b6000819050919050565b600060ff82169050919050565b600061202d82612034565b9050919050565b600061203f82612046565b9050919050565b600061205182611feb565b9050919050565b82818337600083830152505050565b60005b8381101561208557808201518184015260208101905061206a565b83811115612094576000848401525b50505050565b6000601f19601f8301169050919050565b6120b481611fcd565b81146120bf57600080fd5b50565b6120cb8161200b565b81146120d657600080fd5b5056fe45524332303a206275726e20616d6f756e7420657863656564732062616c616e636545524332303a207472616e7366657220616d6f756e7420657863656564732062616c616e636545524332303a207472616e7366657220616d6f756e74206578636565647320616c6c6f77616e636545524332303a2064656372656173656420616c6c6f77616e63652062656c6f77207a65726fa26469706673582212204d9836f08214ad31d1ee53d1a4e055a43438d85e0e57db69261af448d65216d764736f6c63430007000033",
  "immutableReferences": {},
  "source": "pragma solidity ^0.7.0;\npragma experimental ABIEncoderV2;\n\nimport '@openzeppelin/contracts/access/Ownable.sol';\nimport '@openzeppelin/contracts/math/SafeMath.sol';\nimport '@openzeppelin/contracts/token/ERC20/ERC20.sol';\n\ncontract SurveyCoin is ERC20 {\n\n    using SafeMath for uint;\n\n    event NewSurvey(uint surveyid, string name, address creator);\n    event NewResponse(uint numAnswers);\n\n    struct Survey {\n        string name;\n        uint numberOfAnswers;\n        mapping (address => bool) addressAnswered;\n    }\n\n    uint numSurveys;\n    mapping (uint => Survey) surveys;\n    mapping (uint => address) surveyToOwner;\n    mapping (address => uint[]) surveysByOwner;\n    mapping (address => uint) ownerSurveyCount;\n\n    constructor(string memory _name, string memory _symbol) ERC20 (_name, _symbol) {\n        _mint(msg.sender, 1000000);\n    }\n\n    function createSurvey(string memory _name) external {\n        if(ownerSurveyCount[msg.sender] >= 5){\n            require(balanceOf(msg.sender) >= 1);\n        }\n\n        uint id = numSurveys++;\n        // memory - structs w/ mappings cannot be created in solidity > 0.7 (Survey(_name, 0))\n        Survey storage s = surveys[id];\n        s.name = _name;\n        s.numberOfAnswers = 0;\n\n        surveysByOwner[msg.sender].push(id);\n\n        ownerSurveyCount[msg.sender]++; \n        if (ownerSurveyCount[msg.sender] > 5) {\n            _burn(msg.sender, 1);\n        }\n\n        emit NewSurvey(id, _name, msg.sender);\n    }\n\n    function answerSurvey(uint surveyID) external {\n        // cannot answer own survey\n        require(msg.sender != surveyToOwner[surveyID] && surveyID >= 0);\n\n        // require one answer\n        Survey storage s = surveys[surveyID];\n        require(!s.addressAnswered[msg.sender]);\n\n        s.addressAnswered[msg.sender] = true;\n        s.numberOfAnswers++;\n\n        _mint(msg.sender, 1);\n\n        emit NewResponse(s.numberOfAnswers);\n    }\n\n    function getOwnerSurveyCount(address owner) external view returns (uint) {\n        return ownerSurveyCount[owner];\n    }\n\n    function getResponseCount(uint surveyID) external view returns (uint) {\n        require(surveyID >= 0);\n        Survey storage s = surveys[surveyID];\n        return s.numberOfAnswers;\n    }\n\n    function getAllSurveyTitlesByOwner(address owner) external view returns (string[] memory) {\n        string[] memory titles = new string[](surveysByOwner[owner].length);\n\n        for (uint i=0; i<surveysByOwner[owner].length; i++){\n            uint surveyID = surveysByOwner[owner][i];\n            titles[i] = surveys[surveyID].name;\n        }\n\n        return titles;\n    }\n}",
  "sourcePath": "/home/simon/SurveyCoin/surveycoin/contracts/SurveyCoin.sol",
  "compiler": {
    "name": "solc",
    "version": "0.7.0+commit.9e61f92b.Emscripten.clang"
  },
  "schemaVersion": "3.3.1",
  "updatedAt": "2020-12-05T17:36:17.114Z",
  "networkType": "ethereum",
  "devdoc": {
    "kind": "dev",
    "methods": {
      "allowance(address,address)": {
        "details": "See {IERC20-allowance}."
      },
      "approve(address,uint256)": {
        "details": "See {IERC20-approve}. Requirements: - `spender` cannot be the zero address."
      },
      "balanceOf(address)": {
        "details": "See {IERC20-balanceOf}."
      },
      "decimals()": {
        "details": "Returns the number of decimals used to get its user representation. For example, if `decimals` equals `2`, a balance of `505` tokens should be displayed to a user as `5,05` (`505 / 10 ** 2`). Tokens usually opt for a value of 18, imitating the relationship between Ether and Wei. This is the value {ERC20} uses, unless {_setupDecimals} is called. NOTE: This information is only used for _display_ purposes: it in no way affects any of the arithmetic of the contract, including {IERC20-balanceOf} and {IERC20-transfer}."
      },
      "decreaseAllowance(address,uint256)": {
        "details": "Atomically decreases the allowance granted to `spender` by the caller. This is an alternative to {approve} that can be used as a mitigation for problems described in {IERC20-approve}. Emits an {Approval} event indicating the updated allowance. Requirements: - `spender` cannot be the zero address. - `spender` must have allowance for the caller of at least `subtractedValue`."
      },
      "increaseAllowance(address,uint256)": {
        "details": "Atomically increases the allowance granted to `spender` by the caller. This is an alternative to {approve} that can be used as a mitigation for problems described in {IERC20-approve}. Emits an {Approval} event indicating the updated allowance. Requirements: - `spender` cannot be the zero address."
      },
      "name()": {
        "details": "Returns the name of the token."
      },
      "symbol()": {
        "details": "Returns the symbol of the token, usually a shorter version of the name."
      },
      "totalSupply()": {
        "details": "See {IERC20-totalSupply}."
      },
      "transfer(address,uint256)": {
        "details": "See {IERC20-transfer}. Requirements: - `recipient` cannot be the zero address. - the caller must have a balance of at least `amount`."
      },
      "transferFrom(address,address,uint256)": {
        "details": "See {IERC20-transferFrom}. Emits an {Approval} event indicating the updated allowance. This is not required by the EIP. See the note at the beginning of {ERC20}; Requirements: - `sender` and `recipient` cannot be the zero address. - `sender` must have a balance of at least `amount`. - the caller must have allowance for ``sender``'s tokens of at least `amount`."
      }
    },
    "version": 1
  },
  "userdoc": {
    "kind": "user",
    "methods": {},
    "version": 1
  }
}